:020000040800F2
:1000000000A000201D1300086513000865130008F8
:100010006513000865130008651300080000000060
:100020000000000000000000000000006513000850
:100030006513000800000000651300086513000840
:1000400000000000000000000000000000000000B0
:1000500000000000000000000000000000000000A0
:100060000000000000000000000000000000000090
:100070000000000000000000000000000000000080
:100080000000000000000000000000000000000070
:100090000000000000000000000000000000000060
:1000A0000000000000000000000000000000000050
:1000B0000000000000000000000000000000000040
:1000C0000000000000000000000000000000000030
:1000D0000000000000000000000000000000000020
:1000E0000000000000000000000000000000000010
:1000F0000000000000000000000000000000000000
:1001000000000000000000000000000000000000EF
:1001100000000000000000000000000000000000DF
:1001200000000000000000000000000000000000CF
:1001300000000000000000000000000000000000BF
:1001400000000000000000000000000000000000AF
:10015000000000000000000000000000000000009F
:10016000000000000000000000000000000000008F
:10017000000000000000000000000000000000007F
:08018000000000000000000077
:1001880010B5054C237833B9044B13B10448AFF3C9
:1001980000800123237010BD3C01002000000000F6
:1001A800B013000808B5034B1BB103490348AFF36C
:1001B800008008BD0000000040010020B0130008C6
:1001C80008B5114664201A4600F058F9002008BD09
:1001D800132A13B51C460AD8EE23652001AA01216B
:1001E8008DF8043000F04AF9012002B010BD00F08B
:1001F800ADFAC82300BF013BFCD1204600F028F827
:10020800C824019000BF013CFCD100F0A6FA72207E
:1002180001AA042100F032F92046E6E708B500F00B
:10022800F5F900F031FA00F06DFA00F015F9064A18
:100238001421702000F0F6F8044A1421642000F01C
:10024800F1F800F075F9FCE7D9010008C9010008C8
:100258002DE9F04F464E8BB0074606F1180906F116
:1002680030080025434B4FF0140A05AC0AFB053A49
:10027800A7F1020B07F1120223463BF8020F3AF8E6
:10028800021BCDE9002300F07DF8009A019B5A4536
:1002980023F8020BF1D100210846374AB4F800C010
:1002A800B4F802E000239246B2F800B0E34556D114
:1002B800B2F802B0F34552D1062202FB03A3B3F908
:1002C800043002310A29184404F10404E5D158F82D
:1002D800042B56F8043B59F804EB1844A2F1020C1D
:1002E8000123C2F1020103FA0CFC02F11E0A23FAEF
:1002F80001F14CEA010103FA0AF3C0FB0E3102F1E5
:100308001F0CC2F10102BCF1200023FA0CF301FA20
:1003180002F243EA02035CBF41FA00F0034303AC74
:1003280083F3030363550135062D9BD1002213493E
:10033800134614F9015B11F9010B0132062A05FB7A
:100348000033F6D10E495A1E00204FF48003C2FB39
:100358000130DB0D43EA40200BB0BDE8F08F0133DC
:1003680042F2845B5B4502F106029DD10023A8E7B7
:10037800C8130008101400088E1400088814000818
:100388004CFEAE500B4B30B500221C461D888542F2
:1003980008D15D888D4205D1062303FB024494F9F8
:1003A800040030BD0132C42A03F10603EED1002057
:1003B800F7E700BFA6F5000810B502460144002083
:1003C8008A4200D110BD12F8013B0824584043B2BC
:1003D800002BBABF5B0083F04D034300013CD8B249
:1003E800F5D1EDE730B50022044601238B4201D355
:1003F800002030BD14F8015F15B99D1A85541A46BE
:100408000133DBB2F2E730B5047800250246057007
:100418002046884200D204B930BD145C1554031933
:10042800D8B2F6E738B50B4D2B680F2B04DD6120E9
:1004380000F0B2F9012038BDFF2901D96220F7E7A1
:100448000C2404FB035401332071C4E902122B600D
:100458000020F0E70000002008B5064A00217620B9
:10046800FFF7E0FFBDE80840034A00217720FFF7C7
:10047800D9BF00BFDF040008FD040008F0B5C1B013
:1004880000230D468DF802106C468DF800308DF86B
:1004980001000DF102019D4218DCA91CC9B20DF141
:1004A8000100FFF789FF63192F1D691DD870002609
:1004B800C9B22046E655FFF795FF14F8010B01363F
:1004C80000F06AF9B742F8DA41B0F0BDD05C01F843
:1004D800010F0133DFE707B503230DF107020121FF
:1004E80072208DF80730FFF7C9FF002003B05DF8D0
:1004F80004FB000030B50D48017885B000220C24BB
:10050800D3B28B4202F1010206DB6A467220FFF782
:10051800B5FF002005B030BD03F1100504FB03034F
:100528006D441B7905F8103CEAE700BF0000002085
:100538002DE9F047C2B00DF10707002402AE3C7068
:10054800354600F011F906F8010B48B90520387056
:100558003A4601216520FFF791FF42B0BDE8F087D8
:100568000134042CEDD121462846FFF74CFF264ED6
:1005780069783268804600230C205FFA83F9914538
:1005880002DB08D10120E2E700FB096C01339CF88B
:1005980004C08C45F1D1EB780533434507DA0420D4
:1005A800D5E700F0E1F828550028CFD00134EB78E2
:1005B8000433A342F5DA00F0D7F828550028EED125
:1005C800C8F1010151FA84F15FFA84FAC9B205EB66
:1005D8000800FFF718FFAAF10201C9B20DF10900DE
:1005E8002C44FFF7E9FE14F8013C834209D10C239F
:1005F80003FB0966EA78F468A97868786B44A04731
:10060800A5E70220A3E700BF0000002070B596B060
:10061800002403264FF4A0230CA80125CDE90C6380
:100628001094149400F0D0F80F23214602A8CDE9C5
:100638000235CDE90444069400F00CFB104B114838
:100648005A6942F400225A615B6903F4002301935A
:10065800019B07A94FF4C043CDE90735CDE9094609
:1006680000F098FB2A4607484FF4005100F050FC70
:1006780004482A464FF4804100F04AFC16B070BD89
:10068800001002400008004810B54FF4C06288B05E
:100698000223CDE9032301210323CDE90513164CD9
:1006A80007230793636943F400336361636903F4C1
:1006B8000033019303A94FF09040019B00F06AFBBF
:1006C8000E4A0F4B13604FF461300023C2E9010357
:1006D800C2E9033393610C235361A36943F4804354
:1006E800A361A36903F4804302931046029B00F0C0
:1006F80025FD08B010BD00BF00100240C400002056
:100708000038014030B5104B5A6942F4003287B0C6
:100718005A615B6903F400330093009B4FF48054E3
:100728000123CDE901430025032301A94FF090409F
:10073800CDE9035300F02EFB2A4621464FF09040A6
:1007480000F0E6FB07B030BD0010024001224FF474
:1007580080514FF0904000F0DBBB00224FF48051F5
:100768004FF0904000F0D4BB13B5094C094841F252
:10077800883301220DF1070100F060FD18B99DF8DA
:10078800070002B010BD236A43F008032362EDE7B7
:1007980000380140C400002007B541F288338DF8C5
:1007A800070001220DF10701024800F0F1FC03B037
:1007B8005DF804FBC4000020024B1868421C1A6054
:1007C800704700BF3401002003682DE9F743D907BB
:1007D800044610D423689A077ED423681E0700F1C4
:1007E800E78023685D0700F12A81E269002A40F06A
:1007F800AD8100201FE0AE494B6803F00C03042BC9
:1008080007D04B6803F00C03082B17D14B68DB03A8
:1008180014D54FF4003393FAA3F2096893FAA3F3BB
:100828000122B3FA83F302FA03F30B42D2D06368CE
:10083800002BCFD1012003B0BDE8F0836268B2F588
:10084800803F22D10B6843F480330B60CB6AA068E9
:1008580023F00F030343CB623AB3FFF7ADFF4FF426
:1008680000360546012796FAA6F30A6896FAA6F313
:10087800B3FA83F307FA03F31342ABD1FFF79CFFF4
:10088800401B6428EFD90320D5E70B6832B923F45D
:1008980080330B600B6823F48023D6E7B2F5A02FD2
:1008A800F5D143F480230B60CCE7FFF785FF4FF4C5
:1008B80000360546012796FAA6F30A6896FAA6F3C3
:1008C800B3FA83F307FA03F3134283D0FFF774FFF5
:1008D800401B6428EFD9D6E775494B6813F00C0F15
:1008E80007D04B6803F00C03082B1FD14B68DF03BC
:1008F8001CD4022393FAA3F2086893FAA3F3012203
:10090800B3FA83F302FA03F3034202D02369934252
:1009180090D10868F82292FAA2F26369B2FA82F2D8
:10092800934020F0F80213430B6056E72269012533
:10093800F2B195FAA5F3B3FA83F303F1845303F5FF
:1009480084139B0002271D60FFF736FF064697FABF
:10095800A7F30A6897FAA7F3B3FA83F305FA03F340
:100968001342D6D1FFF728FF801B0228EFD98AE768
:1009780095FAA5F3B3FA83F303F1845303F58413CB
:100988009B0002271A60FFF717FF064697FAA7F39E
:100998000A6897FAA7F3B3FA83F305FA03F3134245
:1009A8003FF41BAFFFF708FF801B0228EED96AE768
:1009B800A0693F4D3F4A012100B391FAA1F3B3FA70
:1009C80083F313449B0002261960FFF7F5FE0746E0
:1009D80096FAA6F396FAA6F396FAA6F36A6A96FA30
:1009E800A6F3B3FA83F301FA03F313427FF4F9AEE3
:1009F800FFF7E2FEC01B0228EAD944E791FAA1F307
:100A0800B3FA83F313449B0002261860FFF7D4FE61
:100A1800074696FAA6F396FAA6F396FAA6F36A6A32
:100A280096FAA6F3B3FA83F301FA03F313423FF4F9
:100A3800D8AEFFF7C1FEC01B0228EAD923E71C493C
:100A4800CB69D80031D4CB6943F08053CB61CB69F3
:100A580003F080530193019B0125174E3368DA0593
:100A68002CD5E368012B39D10B6A43F001030B62E3
:100A7800FFF7A2FE022607464FF0010841F2883927
:100A880096FAA6F396FAA6F30A6A96FAA6F3B3FAC2
:100A980083F308FA03F3134252D0002D3FF4A5AEB6
:100AA800CB6923F08053CB619FE60025D5E700BFD3
:100AB800001002402081901000700040336843F419
:100AC80080733360FFF778FE07463368DB05C8D4C8
:100AD800FFF772FEC01B6428F7D9D4E613BB0B6A74
:100AE80023F001030B620B6A23F004030B62FFF788
:100AF80063FE022607464FF0010841F2883996FA4C
:100B0800A6F396FAA6F30A6A96FAA6F3B3FA83F35B
:100B180008FA03F31342C0D0FFF74EFEC01B484546
:100B2800EDD9B0E6052B0B6A03D143F004030B6241
:100B38009AE723F001030B620B6A23F0040396E79C
:100B4800FFF73AFEC01B48459AD99CE63F494B68D7
:100B580003F00C03082B3FF46DAE022A4FF08073AC
:100B680050D193FAA3F3B3FA83F303F1845303F553
:100B780084139B0000221A60FFF71EFEDFF8D08066
:100B880006464FF00077012597FAA7F30A6897FA07
:100B9800A7F3B3FA83F305FA03F313422CD1D4E98C
:100BA80008034A68034322F4741213434B604FF05E
:100BB800807393FAA3F3B3FA83F303F1845303F531
:100BC80084139B00224F1D60FFF7F6FD4FF0007560
:100BD8000446012695FAA5F30A6895FAA5F3B3FA2F
:100BE80083F306FA03F313427FF403AEFFF7E4FD41
:100BF800001BB842EED946E6FFF7DEFD831B4345EE
:100C0800C2D940E693FAA3F3B3FA83F303F184530A
:100C180003F584139B0000221A60FFF7CDFD0C4FEB
:100C280004464FF00075012695FAA5F30A6895FA6F
:100C3800A5F3B3FA83F306FA03F313423FF4D9ADED
:100C4800FFF7BAFD001BB842EED91CE600100240BF
:100C5800400D03004D4AF8B5136803F007038B42B3
:100C6800044611D3226895071AD4D00720D4474ADE
:100C7800136803F007038B426CD82268510774D4B9
:100C880013077AD400200AE0136823F007030B4304
:100C98001360136803F007038B42E3D00120F8BD0B
:100CA8003B48A568436823F0F0032B434360DCE727
:100CB8006268374D012A25D14FF4003393FAA3F027
:100CC800286893FAA3F3B3FA83F302FA03F303420F
:100CD800E4D06B6823F0030313436B60FFF76CFDEC
:100CE8006368012B064641F288371CD16B6803F014
:100CF8000C03042BBBD0FFF75FFD801BB842F5D96E
:100D08000320CCE7022A0CBF4FF00073022393FAAA
:100D1800A3F02E6893FAA3F30120B3FA83F300FA41
:100D280003F33342D4E7022B0FD16B6803F00C03B3
:100D3800082B9CD0FFF740FD801BB842F5D9DFE7B0
:100D4800FFF73AFD801BB842DAD86B6813F00C0F36
:100D5800F6D18CE7136823F007030B43136013687D
:100D680003F007038B4299D187E70949E0684B688C
:100D780023F4E06303434B6082E7054A2169536823
:100D880023F4605343EAC10353607BE70020024029
:100D9800001002402DE9F74FDFF868815A4C002314
:100DA8004FF00F090A6832FA03F502D103B0BDE823
:100DB800F08F012505FA03FA1AEA020200F098807A
:100DC8004D6825F0100EBEF1020F11D1DF0800EBBF
:100DD800870703F0070C3E6A4FEA8C0C09FA0CFBF4
:100DE80026EA0B0B0E6906FA0CF646EA0B063E627B
:100DF800D0F800B04FEA430C032606FA0CF72BEAAA
:100E0800070BFE4305F0030707FA0CF70EF1FF3E48
:100E180047EA0B07BEF1010F076010D8876806EA9A
:100E2800070ECF6807FA0CF747EA0E07876047688E
:100E380027EA0A0E2F099F4047EA0E074760C7684E
:100E480037408E6806FA0CF63E43C660EE004FD572
:100E5800D8F8186046F00106C8F81860D8F8186085
:100E680023F0030707F1804706F0010607F58037EE
:100E7800019603F0030C019EBE684FEA8C0C09FA38
:100E88000CFEB0F1904F26EA0E0E33D01F4EB04242
:100E980032D006F58066B04230D006F58066B042A2
:100EA8002ED006F58066B04214BF0526042606FA41
:100EB8000CF646EA0E06BE602668D74315F4803F56
:100EC8000CBF3E4016432660666815F4003F0CBF11
:100ED8003E4016436660A66815F4801F0CBF3E406E
:100EE8001643A660E668AD0254BF3E401643E6606E
:100EF800013357E70026DAE70126D8E70226D6E7C6
:100F08000326D4E700100240000401400004004812
:100F18000AB1816170478162704700000268836886
:100F2800C16930B5056914682B43456924F4164432
:100F38002B4324F00C040B43234313605368C46809
:100F4800056A23F44053234353609468836924F467
:100F580030642B4323439360424B9A4211D103F5EB
:100F680058431B6B03F00303022B5FD0032B65D0A0
:100F7800B1F5004F41684FEA510345D003F5E1034D
:100F880048E0394B9A4212D103F5E6331B6B03F460
:100F98004033B3F5003F49D0EAD9B3F5403F4DD0CF
:100FA800B1F5004F4FF001005BD1002353E02F4B08
:100FB8009A420BD103F5E4331B6B03F44023B3F5DA
:100FC800002F33D0D4D9B3F5402FE8E7284B9A4205
:100FD8000BD103F5E2331B6B03F44013B3F5001F89
:100FE80024D0C5D9B3F5401FD9E7224B9A42D7D1AF
:100FF80003F5E0331B6B03F44003B3F5000F15D082
:10100800B6D9B3F5400FCAE703F561031FE04B08F3
:1010180003F50043B3FBF1F39BB2D360002020E05B
:101028004B0803F5740303F51053F3E7B1F5004FCC
:101038004168ECD14B0803F5803308E0B1F5004F67
:101048004168EDD14B0803F1F47303F59043B3FB0A
:10105800F1F300209BB223F00F01C3F342030B43CB
:10106800D36030BD003801400044004000480040D3
:10107800004C0040005000402DE9F041DDF8188098
:10108800044616461F462568EB6931EA03030CBF80
:1010980001230023B34201D0002016E0B8F1FF3F3E
:1010A800F2D0B8F1000F12D12B6823F4D0732B6063
:1010B800AB6823F00103AB60202384F8693084F81F
:1010C8006A30002384F868300320BDE8F081FFF718
:1010D80073FBC01B4045D6D9E6E773B5044600212B
:1010E800C166FFF769FB266833681A07054616D4F8
:1010F80033685B070AD56FF07E43009300222B46C6
:101108004FF480012046FFF7B7FFA0B92023002045
:1011180084F8693084F8680084F86A300CE06FF06D
:101128007E4300930A4603464FF400112046FFF71A
:10113800A3FF0028DCD0032002B070BD38B50446F8
:1011480020B390F8693003F0FF020BB980F86820EB
:101158002568242384F869302B6823F001032B6069
:101168002046FFF7DBFE012810D06B6823F490437C
:101178006B60AB6823F02A03AB602B6843F0010374
:101188002B602046BDE83840FFF7A7BF012038BDD7
:10119800F7B51E4690F86930202B0D4604461146D7
:1011A8004AD1002D46D0002A44D090F86830012B4F
:1011B80042D0012380F868300023C366212380F8D9
:1011C8006930FFF7F9FAA4F850100746A4F852104E
:1011D800B4F8522092B262B900963B4640212046AC
:1011E800FFF74AFF98B9202384F8693084F868002B
:1011F8000EE0B4F85220013A92B2A4F852203B46CD
:101208000096002280212046FFF736FF10B1032008
:1012180003B0F0BDA3682268B3F5805F07D12369E6
:101228002BB935F8023BC3F308031385D0E715F84B
:10123800013BFAE70120EBE70220E9E72DE9F3415A
:101248001E4690F86A30202B0D46044611465CD1A4
:10125800002D58D0002A56D090F86830012B54D071
:10126800012380F8683003684FF0FF321A620023C8
:10127800C366222380F86A30FFF79EFAA368A4F8B1
:101288005810B3F5805F8046A4F85A1015D1236929
:101298008BB940F2FF13A4F85C30B4F85C70B4F872
:1012A8005A0080B280B9202384F86A3084F8680034
:1012B80002B0BDE8F081FF23EDE7002BEDD12369F3
:1012C800002BF8D07F23E6E7B4F85A20013A92B20F
:1012D800A4F85A2043460096002220212046FFF712
:1012E800CBFEA0B9A2682368B2F5805F06D1226957
:1012F80022B99B8C3B4025F8023BD0E79B8C3B40B6
:1013080005F8013BCBE70120D2E70220D0E7032014
:10131800CEE70000002103E00B4B5B58435004313B
:101328000A480B4B42189A42F6D30A4A02E00023B5
:1013380013600432084B9A42F9D3AFF3008000F0EF
:101348000FF8FEF76BFFFEE748FA000800000020E0
:10135800000000200000002058010020FEE70000E7
:1013680070B50D4B0D4D5B1B9C100026A64209D194
:1013780000F01AF80A4D0B4B5B1B9C100026A64286
:1013880005D170BD55F8043B98470136EEE755F88E
:10139800043B98470136F2E740FA000840FA000893
:1013A80040FA000844FA0008F8B500BFF8BC08BCC9
:1013B8009E467047F8B500BFF8BC08BC9E4670470B
:1013C800FBFFFFFF060000000800000012000000FD
:1013D800FFFFFFFFFDFFFFFF18D3184B0EF0F86A61
:1013E800960C0C6F0104B54348C5BC494BADD155AB
:1013F80004000000050000000500000005000000D2
:10140800040000000400000006608B4881680C405E
:10141800066087080960096081688B480520816833
:101428000340066087080520096087080960870867
:1014380006600C4087080C400A208B488E688B4851
:101448000A2087080A200A2006600A20880881687E
:101458008448816803400340870884488B48822871
:101468008E6882288B488708880887088808870834
:1014780005208B4805208B48066006608E6803406F
:1014880007FCFDFD0706010001009EFF01000200A8
:101498009FFF01000300A0FF01000400A1FF01005D
:1014A8000500A2FF01000600A3FF01000700A4FF3A
:1014B80001000800A5FF01000900A6FF01000A00BD
:1014C800A7FF01000B00A8FF01000C00A9FF010005
:1014D8000D00AAFF01000E00ABFF01000F00ACFFDA
:1014E80001001000ADFF01001100AEFF0100120065
:1014F800AFFF01001300B0FF01001400B1FF0100AD
:101508001500B2FF01001600B3FF01001700B4FF79
:1015180001001800B5FF01001900B6FF01001A000C
:10152800B7FF01001B00B8FF01001C00B9FF010054
:101538001D00BAFF01001E00BBFF01001F00BCFF19
:1015480001002000BDFF01002100BEFF01002200B4
:10155800BFFF01002300C0FF01002400C1FF0100FC
:101568002500C2FF01002600C3FF01002700C4FFB9
:1015780001002800C5FF01002900C6FF01002A005C
:10158800C7FF01002B00C8FF01002C00C9FF0100A4
:101598002D00CAFF01002E00CBFF01002F00CCFF59
:1015A80001003000CDFF01003100CEFF0100320004
:1015B800D0FF01003300D1FF01003400D2FF010049
:1015C8003500D3FF01003600D4FF01003700D5FFF6
:1015D80001003800D6FF01003900D7FF01003A00AA
:1015E800D8FF01003B00D9FF01003C00DAFF0100F1
:1015F8003D00DBFF01003E00DCFF01003F00DDFF96
:1016080001004000DEFF01004100DFFF0100420051
:10161800E0FF01004300E1FF01004400E2FF010098
:101628004500E3FF01004600E4FF01004700E5FF35
:1016380001004800E6FF01004900E7FF01004A00F9
:10164800E8FF01004B00E9FF01004C00EAFF010040
:101658004D00EBFF01004E00ECFF01004F00EDFFD5
:1016680001005000EEFF01005100EFFF01005200A1
:10167800F0FF01005300F1FF01005400F2FF0100E8
:101688005500F3FF01005600F4FF01005700F5FF75
:1016980001005800F6FF01005900F7FF01005A0049
:1016A800F8FF01005B00F9FF01005C00FAFF010090
:1016B8005D00FBFF01005E00FCFF01005F00FDFF15
:1016C80001006000FEFF01006100FFFF01006200F1
:1016D8000000020001009FFF02000200A0FF0200BC
:1016E8000300A1FF02000400A2FF02000500A3FFFF
:1016F80002000600A4FF02000700A5FF0200080080
:10170800A6FF02000900A7FF02000A00A8FF0200C6
:101718000B00A9FF02000C00AAFF02000D00ABFF9E
:1017280002000E00ACFF02000F00ADFF0200100027
:10173800AEFF02001100AFFF02001200B0FF02006E
:101748001300B1FF02001400B2FF02001500B3FF3E
:1017580002001600B4FF02001700B5FF02001800CF
:10176800B6FF02001900B7FF02001A00B8FF020016
:101778001B00B9FF02001C00BAFF02001D00BBFFDE
:1017880002001E00BCFF02001F00BDFF0200200077
:10179800BEFF02002100BFFF02002200C0FF0200BE
:1017A8002300C1FF02002400C2FF02002500C3FF7E
:1017B80002002600C4FF02002700C5FF020028001F
:1017C800C6FF02002900C7FF02002A00C8FF020066
:1017D8002B00C9FF02002C00CAFF02002D00CBFF1E
:1017E80002002E00CCFF02002F00CDFF02003000C7
:1017F800CEFF02003100CFFF02003200D1FF02000D
:101808003300D2FF02003400D3FF02003500D4FFBA
:1018180002003600D5FF02003700D6FF020038006C
:10182800D7FF02003900D8FF02003A00D9FF0200B2
:101838003B00DAFF02003C00DBFF02003D00DCFF5A
:1018480002003E00DDFF02003F00DEFF0200400014
:10185800DFFF02004100E0FF02004200E1FF02005A
:101868004300E2FF02004400E3FF02004500E4FFFA
:1018780002004600E5FF02004700E6FF02004800BC
:10188800E7FF02004900E8FF02004A00E9FF020002
:101898004B00EAFF02004C00EBFF02004D00ECFF9A
:1018A80002004E00EDFF02004F00EEFF0200500064
:1018B800EFFF02005100F0FF02005200F1FF0200AA
:1018C8005300F2FF02005400F3FF02005500F4FF3A
:1018D80002005600F5FF02005700F6FF020058000C
:1018E800F7FF02005900F8FF02005A00F9FF020052
:1018F8005B00FAFF02005C00FBFF02005D00FCFFDA
:1019080002005E00FDFF02005F00FEFF02006000B3
:10191800FFFF0200610000000200620001000300F6
:101928000100A0FF03000200A1FF03000300A2FFC3
:1019380003000400A3FF03000500A4FF0300060042
:10194800A5FF03000700A6FF03000800A7FF030088
:101958000900A8FF03000A00A9FF03000B00AAFF63
:1019680003000C00ABFF03000D00ACFF03000E00EA
:10197800ADFF03000F00AEFF03001000AFFF030030
:101988001100B0FF03001200B1FF03001300B2FF03
:1019980003001400B3FF03001500B4FF0300160092
:1019A800B5FF03001700B6FF03001800B7FF0300D8
:1019B8001900B8FF03001A00B9FF03001B00BAFFA3
:1019C80003001C00BBFF03001D00BCFF03001E003A
:1019D800BDFF03001F00BEFF03002000BFFF030080
:1019E8002100C0FF03002200C1FF03002300C2FF43
:1019F80003002400C3FF03002500C4FF03002600E2
:101A0800C5FF03002700C6FF03002800C7FF030027
:101A18002900C8FF03002A00C9FF03002B00CAFFE2
:101A280003002C00CBFF03002D00CCFF03002E0089
:101A3800CDFF03002F00CEFF03003000CFFF0300CF
:101A48003100D0FF03003200D2FF03003300D3FF80
:101A580003003400D4FF03003500D5FF030036002F
:101A6800D6FF03003700D7FF03003800D8FF030074
:101A78003900D9FF03003A00DAFF03003B00DBFF1F
:101A880003003C00DCFF03003D00DDFF03003E00D7
:101A9800DEFF03003F00DFFF03004000E0FF03001C
:101AA8004100E1FF03004200E2FF03004300E3FFBF
:101AB80003004400E4FF03004500E5FF030046007F
:101AC800E6FF03004700E7FF03004800E8FF0300C4
:101AD8004900E9FF03004A00EAFF03004B00EBFF5F
:101AE80003004C00ECFF03004D00EDFF03004E0027
:101AF800EEFF03004F00EFFF03005000F0FF03006C
:101B08005100F1FF03005200F2FF03005300F3FFFE
:101B180003005400F4FF03005500F5FF03005600CE
:101B2800F6FF03005700F7FF03005800F8FF030013
:101B38005900F9FF03005A00FAFF03005B00FBFF9E
:101B480003005C00FCFF03005D00FDFF03005E0076
:101B5800FEFF03005F00FFFF0300600000000300BA
:101B68006100010003006200020004000100A1FFFF
:101B780004000200A2FF04000300A3FF0400040005
:101B8800A4FF04000500A5FF04000600A6FF04004A
:101B98000700A7FF04000800A8FF04000900A9FF28
:101BA80004000A00AAFF04000B00ABFF04000C00AD
:101BB800ACFF04000D00ADFF04000E00AEFF0400F2
:101BC8000F00AFFF04001000B0FF04001100B1FFC8
:101BD80004001200B2FF04001300B3FF0400140055
:101BE800B4FF04001500B5FF04001600B6FF04009A
:101BF8001700B7FF04001800B8FF04001900B9FF68
:101C080004001A00BAFF04001B00BBFF04001C00FC
:101C1800BCFF04001D00BDFF04001E00BEFF040041
:101C28001F00BFFF04002000C0FF04002100C1FF07
:101C380004002200C2FF04002300C3FF04002400A4
:101C4800C4FF04002500C5FF04002600C6FF0400E9
:101C58002700C7FF04002800C8FF04002900C9FFA7
:101C680004002A00CAFF04002B00CBFF04002C004C
:101C7800CCFF04002D00CDFF04002E00CEFF040091
:101C88002F00CFFF04003000D0FF04003100D1FF47
:101C980004003200D3FF04003300D4FF04003400F2
:101CA800D5FF04003500D6FF04003600D7FF040036
:101CB8003700D8FF04003800D9FF04003900DAFFE4
:101CC80004003A00DBFF04003B00DCFF04003C009A
:101CD800DDFF04003D00DEFF04003E00DFFF0400DE
:101CE8003F00E0FF04004000E1FF04004100E2FF84
:101CF80004004200E3FF04004300E4FF0400440042
:101D0800E5FF04004500E6FF04004600E7FF040085
:101D18004700E8FF04004800E9FF04004900EAFF23
:101D280004004A00EBFF04004B00ECFF04004C00E9
:101D3800EDFF04004D00EEFF04004E00EFFF04002D
:101D48004F00F0FF04005000F1FF04005100F2FFC3
:101D580004005200F3FF04005300F4FF0400540091
:101D6800F5FF04005500F6FF04005600F7FF0400D5
:101D78005700F8FF04005800F9FF04005900FAFF63
:101D880004005A00FBFF04005B00FCFF04005C0039
:101D9800FDFF04005D00FEFF04005E00FFFF04007D
:101DA8005F00000004006000010004006100020000
:101DB80004006200030005000100A2FF0500020004
:101DC800A3FF05000300A4FF05000400A5FF05000C
:101DD8000500A6FF05000600A7FF05000700A8FFED
:101DE80005000800A9FF05000900AAFF05000A0070
:101DF800ABFF05000B00ACFF05000C00ADFF0500B4
:101E08000D00AEFF05000E00AFFF05000F00B0FF8C
:101E180005001000B1FF05001100B2FF0500120017
:101E2800B3FF05001300B4FF05001400B5FF05005B
:101E38001500B6FF05001600B7FF05001700B8FF2C
:101E480005001800B9FF05001900BAFF05001A00BF
:101E5800BBFF05001B00BCFF05001C00BDFF050003
:101E68001D00BEFF05001E00BFFF05001F00C0FFCC
:101E780005002000C1FF05002100C2FF0500220067
:101E8800C3FF05002300C4FF05002400C5FF0500AB
:101E98002500C6FF05002600C7FF05002700C8FF6C
:101EA80005002800C9FF05002900CAFF05002A000F
:101EB800CBFF05002B00CCFF05002C00CDFF050053
:101EC8002D00CEFF05002E00CFFF05002F00D0FF0C
:101ED80005003000D1FF05003100D2FF05003200B7
:101EE800D4FF05003300D5FF05003400D6FF0500F8
:101EF8003500D7FF05003600D8FF05003700D9FFA9
:101F080005003800DAFF05003900DBFF05003A005C
:101F1800DCFF05003B00DDFF05003C00DEFF05009F
:101F28003D00DFFF05003E00E0FF05003F00E1FF48
:101F380005004000E2FF05004100E3FF0500420004
:101F4800E4FF05004300E5FF05004400E6FF050047
:101F58004500E7FF05004600E8FF05004700E9FFE8
:101F680005004800EAFF05004900EBFF05004A00AC
:101F7800ECFF05004B00EDFF05004C00EEFF0500EF
:101F88004D00EFFF05004E00F0FF05004F00F1FF88
:101F980005005000F2FF05005100F3FF0500520054
:101FA800F4FF05005300F5FF05005400F6FF050097
:101FB8005500F7FF05005600F8FF05005700F9FF28
:101FC80005005800FAFF05005900FBFF05005A00FC
:101FD800FCFF05005B00FDFF05005C00FEFF05003F
:101FE8005D00FFFF05005E00000005005F000100C6
:101FF80005006000020005006100030005006200A2
:10200800040006000100A3FF06000200A4FF06006A
:102018000300A5FF06000400A6FF06000500A7FFB1
:1020280006000600A8FF06000700A9FF0600080032
:10203800AAFF06000900ABFF06000A00ACFF060075
:102048000B00ADFF06000C00AEFF06000D00AFFF51
:1020580006000E00B0FF06000F00B1FF06001000DA
:10206800B2FF06001100B3FF06001200B4FF06001D
:102078001300B5FF06001400B6FF06001500B7FFF1
:1020880006001600B8FF06001700B9FF0600180082
:10209800BAFF06001900BBFF06001A00BCFF0600C5
:1020A8001B00BDFF06001C00BEFF06001D00BFFF91
:1020B80006001E00C0FF06001F00C1FF060020002A
:1020C800C2FF06002100C3FF06002200C4FF06006D
:1020D8002300C5FF06002400C6FF06002500C7FF31
:1020E80006002600C8FF06002700C9FF06002800D2
:1020F800CAFF06002900CBFF06002A00CCFF060015
:102108002B00CDFF06002C00CEFF06002D00CFFFD0
:1021180006002E00D0FF06002F00D1FF0600300079
:10212800D2FF06003100D3FF06003200D5FF0600BB
:102138003300D6FF06003400D7FF06003500D8FF6D
:1021480006003600D9FF06003700DAFF060038001F
:10215800DBFF06003900DCFF06003A00DDFF060061
:102168003B00DEFF06003C00DFFF06003D00E0FF0D
:1021780006003E00E1FF06003F00E2FF06004000C7
:10218800E3FF06004100E4FF06004200E5FF060009
:102198004300E6FF06004400E7FF06004500E8FFAD
:1021A80006004600E9FF06004700EAFF060048006F
:1021B800EBFF06004900ECFF06004A00EDFF0600B1
:1021C8004B00EEFF06004C00EFFF06004D00F0FF4D
:1021D80006004E00F1FF06004F00F2FF0600500017
:1021E800F3FF06005100F4FF06005200F5FF060059
:1021F8005300F6FF06005400F7FF06005500F8FFED
:1022080006005600F9FF06005700FAFF06005800BE
:10221800FBFF06005900FCFF06005A00FDFF060000
:102228005B00FEFF06005C00FFFF06005D0000008B
:1022380006005E00010006005F0002000600600064
:1022480003000600610004000600620005000700A4
:102258000100A4FF07000200A5FF07000300A6FF76
:1022680007000400A7FF07000500A8FF07000600F5
:10227800A9FF07000700AAFF07000800ABFF070037
:102288000900ACFF07000A00ADFF07000B00AEFF16
:1022980007000C00AFFF07000D00B0FF07000E009D
:1022A800B1FF07000F00B2FF07001000B3FF0700DF
:1022B8001100B4FF07001200B5FF07001300B6FFB6
:1022C80007001400B7FF07001500B8FF0700160045
:1022D800B9FF07001700BAFF07001800BBFF070087
:1022E8001900BCFF07001A00BDFF07001B00BEFF56
:1022F80007001C00BFFF07001D00C0FF07001E00ED
:10230800C1FF07001F00C2FF07002000C3FF07002E
:102318002100C4FF07002200C5FF07002300C6FFF5
:1023280007002400C7FF07002500C8FF0700260094
:10233800C9FF07002700CAFF07002800CBFF0700D6
:102348002900CCFF07002A00CDFF07002B00CEFF95
:1023580007002C00CFFF07002D00D0FF07002E003C
:10236800D1FF07002F00D2FF07003000D3FF07007E
:102378003100D4FF07003200D6FF07003300D7FF33
:1023880007003400D8FF07003500D9FF07003600E2
:10239800DAFF07003700DBFF07003800DCFF070023
:1023A8003900DDFF07003A00DEFF07003B00DFFFD2
:1023B80007003C00E0FF07003D00E1FF07003E008A
:1023C800E2FF07003F00E3FF07004000E4FF0700CB
:1023D8004100E5FF07004200E6FF07004300E7FF72
:1023E80007004400E8FF07004500E9FF0700460032
:1023F800EAFF07004700EBFF07004800ECFF070073
:102408004900EDFF07004A00EEFF07004B00EFFF11
:1024180007004C00F0FF07004D00F1FF07004E00D9
:10242800F2FF07004F00F3FF07005000F4FF07001A
:102438005100F5FF07005200F6FF07005300F7FFB1
:1024480007005400F8FF07005500F9FF0700560081
:10245800FAFF07005700FBFF07005800FCFF0700C2
:102468005900FDFF07005A00FEFF07005B00FFFF51
:1024780007005C00000007005D00010007005E0027
:10248800020007005F000300070060000400070067
:102498006100050007006200060008000100A5FFB2
:1024A80008000200A6FF08000300A7FF08000400B8
:1024B800A8FF08000500A9FF08000600AAFF0800F9
:1024C8000700ABFF08000800ACFF08000900ADFFDB
:1024D80008000A00AEFF08000B00AFFF08000C0060
:1024E800B0FF08000D00B1FF08000E00B2FF0800A1
:1024F8000F00B3FF08001000B4FF08001100B5FF7B
:1025080008001200B6FF08001300B7FF0800140007
:10251800B8FF08001500B9FF08001600BAFF080048
:102528001700BBFF08001800BCFF08001900BDFF1A
:1025380008001A00BEFF08001B00BFFF08001C00AF
:10254800C0FF08001D00C1FF08001E00C2FF0800F0
:102558001F00C3FF08002000C4FF08002100C5FFBA
:1025680008002200C6FF08002300C7FF0800240057
:10257800C8FF08002500C9FF08002600CAFF080098
:102588002700CBFF08002800CCFF08002900CDFF5A
:1025980008002A00CEFF08002B00CFFF08002C00FF
:1025A800D0FF08002D00D1FF08002E00D2FF080040
:1025B8002F00D3FF08003000D4FF08003100D5FFFA
:1025C80008003200D7FF08003300D8FF08003400A5
:1025D800D9FF08003500DAFF08003600DBFF0800E5
:1025E8003700DCFF08003800DDFF08003900DEFF97
:1025F80008003A00DFFF08003B00E0FF08003C004D
:10260800E1FF08003D00E2FF08003E00E3FF08008C
:102618003F00E4FF08004000E5FF08004100E6FF36
:1026280008004200E7FF08004300E8FF08004400F4
:10263800E9FF08004500EAFF08004600EBFF080034
:102648004700ECFF08004800EDFF08004900EEFFD6
:1026580008004A00EFFF08004B00F0FF08004C009C
:10266800F1FF08004D00F2FF08004E00F3FF0800DC
:102678004F00F4FF08005000F5FF08005100F6FF76
:1026880008005200F7FF08005300F8FF0800540044
:10269800F9FF08005500FAFF08005600FBFF080084
:1026A8005700FCFF08005800FDFF08005900FEFF16
:1026B80008005A00FFFF08005B00000008005C00EB
:1026C800010008005D00020008005E000300080029
:1026D8005F000400080060000500080061000600B3
:1026E80008006200070009000100A6FF09000200B7
:1026F800A7FF09000300A8FF09000400A9FF0900BB
:102708000500AAFF09000600ABFF09000700ACFF9F
:1027180009000800ADFF09000900AEFF09000A0022
:10272800AFFF09000B00B0FF09000C00B1FF090062
:102738000D00B2FF09000E00B3FF09000F00B4FF3F
:1027480009001000B5FF09001100B6FF09001200CA
:10275800B7FF09001300B8FF09001400B9FF09000A
:102768001500BAFF09001600BBFF09001700BCFFDF
:1027780009001800BDFF09001900BEFF09001A0072
:10278800BFFF09001B00C0FF09001C00C1FF0900B2
:102798001D00C2FF09001E00C3FF09001F00C4FF7F
:1027A80009002000C5FF09002100C6FF090022001A
:1027B800C7FF09002300C8FF09002400C9FF09005A
:1027C8002500CAFF09002600CBFF09002700CCFF1F
:1027D80009002800CDFF09002900CEFF09002A00C2
:1027E800CFFF09002B00D0FF09002C00D1FF090002
:1027F8002D00D2FF09002E00D3FF09002F00D4FFBF
:1028080009003000D5FF09003100D6FF0900320069
:10281800D8FF09003300D9FF09003400DAFF0900A6
:102828003500DBFF09003600DCFF09003700DDFF5B
:1028380009003800DEFF09003900DFFF09003A000F
:10284800E0FF09003B00E1FF09003C00E2FF09004E
:102858003D00E3FF09003E00E4FF09003F00E5FFFB
:1028680009004000E6FF09004100E7FF09004200B7
:10287800E8FF09004300E9FF09004400EAFF0900F6
:102888004500EBFF09004600ECFF09004700EDFF9B
:1028980009004800EEFF09004900EFFF09004A005F
:1028A800F0FF09004B00F1FF09004C00F2FF09009E
:1028B8004D00F3FF09004E00F4FF09004F00F5FF3B
:1028C80009005000F6FF09005100F7FF0900520007
:1028D800F8FF09005300F9FF09005400FAFF090046
:1028E8005500FBFF09005600FCFF09005700FDFFDB
:1028F80009005800FEFF09005900FFFF09005A00AF
:10290800000009005B00010009005C0002000900EA
:102918005D00030009005E00040009005F00050077
:102928000900600006000900610007000900620054
:1029380008000A000100A7FF0A000200A8FF0A0019
:102948000300A9FF0A000400AAFF0A000500ABFF64
:102958000A000600ACFF0A000700ADFF0A000800E5
:10296800AEFF0A000900AFFF0A000A00B0FF0A0024
:102978000B00B1FF0A000C00B2FF0A000D00B3FF04
:102988000A000E00B4FF0A000F00B5FF0A0010008D
:10299800B6FF0A001100B7FF0A001200B8FF0A00CC
:1029A8001300B9FF0A001400BAFF0A001500BBFFA4
:1029B8000A001600BCFF0A001700BDFF0A00180035
:1029C800BEFF0A001900BFFF0A001A00C0FF0A0074
:1029D8001B00C1FF0A001C00C2FF0A001D00C3FF44
:1029E8000A001E00C4FF0A001F00C5FF0A002000DD
:1029F800C6FF0A002100C7FF0A002200C8FF0A001C
:102A08002300C9FF0A002400CAFF0A002500CBFFE3
:102A18000A002600CCFF0A002700CDFF0A00280084
:102A2800CEFF0A002900CFFF0A002A00D0FF0A00C3
:102A38002B00D1FF0A002C00D2FF0A002D00D3FF83
:102A48000A002E00D4FF0A002F00D5FF0A0030002C
:102A5800D6FF0A003100D7FF0A003200D9FF0A006A
:102A68003300DAFF0A003400DBFF0A003500DCFF20
:102A78000A003600DDFF0A003700DEFF0A003800D2
:102A8800DFFF0A003900E0FF0A003A00E1FF0A0010
:102A98003B00E2FF0A003C00E3FF0A003D00E4FFC0
:102AA8000A003E00E5FF0A003F00E6FF0A0040007A
:102AB800E7FF0A004100E8FF0A004200E9FF0A00B8
:102AC8004300EAFF0A004400EBFF0A004500ECFF60
:102AD8000A004600EDFF0A004700EEFF0A00480022
:102AE800EFFF0A004900F0FF0A004A00F1FF0A0060
:102AF8004B00F2FF0A004C00F3FF0A004D00F4FF00
:102B08000A004E00F5FF0A004F00F6FF0A005000C9
:102B1800F7FF0A005100F8FF0A005200F9FF0A0007
:102B28005300FAFF0A005400FBFF0A005500FCFF9F
:102B38000A005600FDFF0A005700FEFF0A00580071
:102B4800FFFF0A00590000000A005A0001000A00AD
:102B58005B0002000A005C0003000A005D0004003C
:102B68000A005E0005000A005F0006000A00600017
:102B780007000A00610008000A00620009000B0053
:102B88000100A8FF0B000200A9FF0B000300AAFF29
:102B98000B000400ABFF0B000500ACFF0B000600A8
:102BA800ADFF0B000700AEFF0B000800AFFF0B00E6
:102BB8000900B0FF0B000A00B1FF0B000B00B2FFC9
:102BC8000B000C00B3FF0B000D00B4FF0B000E0050
:102BD800B5FF0B000F00B6FF0B001000B7FF0B008E
:102BE8001100B8FF0B001200B9FF0B001300BAFF69
:102BF8000B001400BBFF0B001500BCFF0B001600F8
:102C0800BDFF0B001700BEFF0B001800BFFF0B0035
:102C18001900C0FF0B001A00C1FF0B001B00C2FF08
:102C28000B001C00C3FF0B001D00C4FF0B001E009F
:102C3800C5FF0B001F00C6FF0B002000C7FF0B00DD
:102C48002100C8FF0B002200C9FF0B002300CAFFA8
:102C58000B002400CBFF0B002500CCFF0B00260047
:102C6800CDFF0B002700CEFF0B002800CFFF0B0085
:102C78002900D0FF0B002A00D1FF0B002B00D2FF48
:102C88000B002C00D3FF0B002D00D4FF0B002E00EF
:102C9800D5FF0B002F00D6FF0B003000D7FF0B002D
:102CA8003100D8FF0B003200DAFF0B003300DBFFE6
:102CB8000B003400DCFF0B003500DDFF0B00360095
:102CC800DEFF0B003700DFFF0B003800E0FF0B00D2
:102CD8003900E1FF0B003A00E2FF0B003B00E3FF85
:102CE8000B003C00E4FF0B003D00E5FF0B003E003D
:102CF800E6FF0B003F00E7FF0B004000E8FF0B007A
:102D08004100E9FF0B004200EAFF0B004300EBFF24
:102D18000B004400ECFF0B004500EDFF0B004600E4
:102D2800EEFF0B004700EFFF0B004800F0FF0B0021
:102D38004900F1FF0B004A00F2FF0B004B00F3FFC4
:102D48000B004C00F4FF0B004D00F5FF0B004E008C
:102D5800F6FF0B004F00F7FF0B005000F8FF0B00C9
:102D68005100F9FF0B005200FAFF0B005300FBFF64
:102D78000B005400FCFF0B005500FDFF0B00560034
:102D8800FEFF0B005700FFFF0B00580000000B0070
:102D9800590001000B005A0002000B005B00030001
:102DA8000B005C0004000B005D0005000B005E00DA
:102DB80006000B005F0007000B00600008000B0016
:102DC800610009000B0062000A000C000100A9FF65
:102DD8000C000200AAFF0C000300ABFF0C0004006B
:102DE800ACFF0C000500ADFF0C000600AEFF0C00A8
:102DF8000700AFFF0C000800B0FF0C000900B1FF8E
:102E08000C000A00B2FF0C000B00B3FF0C000C0012
:102E1800B4FF0C000D00B5FF0C000E00B6FF0C004F
:102E28000F00B7FF0C001000B8FF0C001100B9FF2D
:102E38000C001200BAFF0C001300BBFF0C001400BA
:102E4800BCFF0C001500BDFF0C001600BEFF0C00F7
:102E58001700BFFF0C001800C0FF0C001900C1FFCD
:102E68000C001A00C2FF0C001B00C3FF0C001C0062
:102E7800C4FF0C001D00C5FF0C001E00C6FF0C009F
:102E88001F00C7FF0C002000C8FF0C002100C9FF6D
:102E98000C002200CAFF0C002300CBFF0C0024000A
:102EA800CCFF0C002500CDFF0C002600CEFF0C0047
:102EB8002700CFFF0C002800D0FF0C002900D1FF0D
:102EC8000C002A00D2FF0C002B00D3FF0C002C00B2
:102ED800D4FF0C002D00D5FF0C002E00D6FF0C00EF
:102EE8002F00D7FF0C003000D8FF0C003100D9FFAD
:102EF8000C003200DBFF0C003300DCFF0C00340058
:102F0800DDFF0C003500DEFF0C003600DFFF0C0093
:102F18003700E0FF0C003800E1FF0C003900E2FF49
:102F28000C003A00E3FF0C003B00E4FF0C003C00FF
:102F3800E5FF0C003D00E6FF0C003E00E7FF0C003B
:102F48003F00E8FF0C004000E9FF0C004100EAFFE9
:102F58000C004200EBFF0C004300ECFF0C004400A7
:102F6800EDFF0C004500EEFF0C004600EFFF0C00E3
:102F78004700F0FF0C004800F1FF0C004900F2FF89
:102F88000C004A00F3FF0C004B00F4FF0C004C004F
:102F9800F5FF0C004D00F6FF0C004E00F7FF0C008B
:102FA8004F00F8FF0C005000F9FF0C005100FAFF29
:102FB8000C005200FBFF0C005300FCFF0C005400F7
:102FC800FDFF0C005500FEFF0C005600FFFF0C0033
:102FD800570000000C00580001000C0059000200C6
:102FE8000C005A0003000C005B0004000C005C009D
:102FF80005000C005D0006000C005E0007000C00D8
:103008005F0008000C00600009000C0061000A0065
:103018000C0062000B000D000100AAFF0D00020069
:10302800ABFF0D000300ACFF0D000400ADFF0D0069
:103038000500AEFF0D000600AFFF0D000700B0FF52
:103048000D000800B1FF0D000900B2FF0D000A00D5
:10305800B3FF0D000B00B4FF0D000C00B5FF0D0011
:103068000D00B6FF0D000E00B7FF0D000F00B8FFF2
:103078000D001000B9FF0D001100BAFF0D0012007D
:10308800BBFF0D001300BCFF0D001400BDFF0D00B9
:103098001500BEFF0D001600BFFF0D001700C0FF92
:1030A8000D001800C1FF0D001900C2FF0D001A0025
:1030B800C3FF0D001B00C4FF0D001C00C5FF0D0061
:1030C8001D00C6FF0D001E00C7FF0D001F00C8FF32
:1030D8000D002000C9FF0D002100CAFF0D002200CD
:1030E800CBFF0D002300CCFF0D002400CDFF0D0009
:1030F8002500CEFF0D002600CFFF0D002700D0FFD2
:103108000D002800D1FF0D002900D2FF0D002A0074
:10311800D3FF0D002B00D4FF0D002C00D5FF0D00B0
:103128002D00D6FF0D002E00D7FF0D002F00D8FF71
:103138000D003000D9FF0D003100DAFF0D0032001C
:10314800DCFF0D003300DDFF0D003400DEFF0D0055
:103158003500DFFF0D003600E0FF0D003700E1FF0E
:103168000D003800E2FF0D003900E3FF0D003A00C2
:10317800E4FF0D003B00E5FF0D003C00E6FF0D00FD
:103188003D00E7FF0D003E00E8FF0D003F00E9FFAE
:103198000D004000EAFF0D004100EBFF0D0042006A
:1031A800ECFF0D004300EDFF0D004400EEFF0D00A5
:1031B8004500EFFF0D004600F0FF0D004700F1FF4E
:1031C8000D004800F2FF0D004900F3FF0D004A0012
:1031D800F4FF0D004B00F5FF0D004C00F6FF0D004D
:1031E8004D00F7FF0D004E00F8FF0D004F00F9FFEE
:1031F8000D005000FAFF0D005100FBFF0D005200BA
:10320800FCFF0D005300FDFF0D005400FEFF0D00F4
:103218005500FFFF0D00560000000D00570001008B
:103228000D00580002000D00590003000D005A005F
:1032380004000D005B0005000D005C0006000D0099
:103248005D0007000D005E0008000D005F0009002A
:103258000D0060000A000D0061000B000D00620007
:103268000C000E000100ABFF0E000200ACFF0E00C8
:103278000300ADFF0E000400AEFF0E000500AFFF17
:103288000E000600B0FF0E000700B1FF0E00080098
:10329800B2FF0E000900B3FF0E000A00B4FF0E00D3
:1032A8000B00B5FF0E000C00B6FF0E000D00B7FFB7
:1032B8000E000E00B8FF0E000F00B9FF0E00100040
:1032C800BAFF0E001100BBFF0E001200BCFF0E007B
:1032D8001300BDFF0E001400BEFF0E001500BFFF57
:1032E8000E001600C0FF0E001700C1FF0E001800E8
:1032F800C2FF0E001900C3FF0E001A00C4FF0E0023
:103308001B00C5FF0E001C00C6FF0E001D00C7FFF6
:103318000E001E00C8FF0E001F00C9FF0E0020008F
:10332800CAFF0E002100CBFF0E002200CCFF0E00CA
:103338002300CDFF0E002400CEFF0E002500CFFF96
:103348000E002600D0FF0E002700D1FF0E00280037
:10335800D2FF0E002900D3FF0E002A00D4FF0E0072
:103368002B00D5FF0E002C00D6FF0E002D00D7FF36
:103378000E002E00D8FF0E002F00D9FF0E003000DF
:10338800DAFF0E003100DBFF0E003200DDFF0E0019
:103398003300DEFF0E003400DFFF0E003500E0FFD3
:1033A8000E003600E1FF0E003700E2FF0E00380085
:1033B800E3FF0E003900E4FF0E003A00E5FF0E00BF
:1033C8003B00E6FF0E003C00E7FF0E003D00E8FF73
:1033D8000E003E00E9FF0E003F00EAFF0E0040002D
:1033E800EBFF0E004100ECFF0E004200EDFF0E0067
:1033F8004300EEFF0E004400EFFF0E004500F0FF13
:103408000E004600F1FF0E004700F2FF0E004800D4
:10341800F3FF0E004900F4FF0E004A00F5FF0E000E
:103428004B00F6FF0E004C00F7FF0E004D00F8FFB2
:103438000E004E00F9FF0E004F00FAFF0E0050007C
:10344800FBFF0E005100FCFF0E005200FDFF0E00B6
:103458005300FEFF0E005400FFFF0E005500000051
:103468000E00560001000E00570002000E00580022
:1034780003000E00590004000E005A0005000E005B
:103488005B0006000E005C0007000E005D000800EF
:103498000E005E0009000E005F000A000E006000CA
:1034A8000B000E0061000C000E0062000D000F0002
:1034B8000100ACFF0F000200ADFF0F000300AEFFDC
:1034C8000F000400AFFF0F000500B0FF0F0006005B
:1034D800B1FF0F000700B2FF0F000800B3FF0F0095
:1034E8000900B4FF0F000A00B5FF0F000B00B6FF7C
:1034F8000F000C00B7FF0F000D00B8FF0F000E0003
:10350800B9FF0F000F00BAFF0F001000BBFF0F003C
:103518001100BCFF0F001200BDFF0F001300BEFF1B
:103528000F001400BFFF0F001500C0FF0F001600AA
:10353800C1FF0F001700C2FF0F001800C3FF0F00E4
:103548001900C4FF0F001A00C5FF0F001B00C6FFBB
:103558000F001C00C7FF0F001D00C8FF0F001E0052
:10356800C9FF0F001F00CAFF0F002000CBFF0F008C
:103578002100CCFF0F002200CDFF0F002300CEFF5B
:103588000F002400CFFF0F002500D0FF0F002600FA
:10359800D1FF0F002700D2FF0F002800D3FF0F0034
:1035A8002900D4FF0F002A00D5FF0F002B00D6FFFB
:1035B8000F002C00D7FF0F002D00D8FF0F002E00A2
:1035C800D9FF0F002F00DAFF0F003000DBFF0F00DC
:1035D8003100DCFF0F003200DEFF0F003300DFFF99
:1035E8000F003400E0FF0F003500E1FF0F00360048
:1035F800E2FF0F003700E3FF0F003800E4FF0F0081
:103608003900E5FF0F003A00E6FF0F003B00E7FF37
:103618000F003C00E8FF0F003D00E9FF0F003E00EF
:10362800EAFF0F003F00EBFF0F004000ECFF0F0028
:103638004100EDFF0F004200EEFF0F004300EFFFD7
:103648000F004400F0FF0F004500F1FF0F00460097
:10365800F2FF0F004700F3FF0F004800F4FF0F00D0
:103668004900F5FF0F004A00F6FF0F004B00F7FF77
:103678000F004C00F8FF0F004D00F9FF0F004E003F
:10368800FAFF0F004F00FBFF0F005000FCFF0F0078
:103698005100FDFF0F005200FEFF0F005300FFFF17
:1036A8000F00540000000F00550001000F005600E5
:1036B80002000F00570003000F00580004000F001D
:1036C800590005000F005A0006000F005B000700B4
:1036D8000F005C0008000F005D0009000F005E008D
:1036E8000A000F005F000B000F0060000C000F00C5
:1036F80061000D000F0062000E0010000100ADFF18
:1037080010000200AEFF10000300AFFF100004001D
:10371800B0FF10000500B1FF10000600B2FF100056
:103728000700B3FF10000800B4FF10000900B5FF40
:1037380010000A00B6FF10000B00B7FF10000C00C5
:10374800B8FF10000D00B9FF10000E00BAFF1000FE
:103758000F00BBFF10001000BCFF10001100BDFFE0
:1037680010001200BEFF10001300BFFF100014006D
:10377800C0FF10001500C1FF10001600C2FF1000A6
:103788001700C3FF10001800C4FF10001900C5FF80
:1037980010001A00C6FF10001B00C7FF10001C0015
:1037A800C8FF10001D00C9FF10001E00CAFF10004E
:1037B8001F00CBFF10002000CCFF10002100CDFF20
:1037C80010002200CEFF10002300CFFF10002400BD
:1037D800D0FF10002500D1FF10002600D2FF1000F6
:1037E8002700D3FF10002800D4FF10002900D5FFC0
:1037F80010002A00D6FF10002B00D7FF10002C0065
:10380800D8FF10002D00D9FF10002E00DAFF10009D
:103818002F00DBFF10003000DCFF10003100DDFF5F
:1038280010003200DFFF10003300E0FF100034000A
:10383800E1FF10003500E2FF10003600E3FF100042
:103848003700E4FF10003800E5FF10003900E6FFFC
:1038580010003A00E7FF10003B00E8FF10003C00B2
:10386800E9FF10003D00EAFF10003E00EBFF1000EA
:103878003F00ECFF10004000EDFF10004100EEFF9C
:1038880010004200EFFF10004300F0FF100044005A
:10389800F1FF10004500F2FF10004600F3FF100092
:1038A8004700F4FF10004800F5FF10004900F6FF3C
:1038B80010004A00F7FF10004B00F8FF10004C0002
:1038C800F9FF10004D00FAFF10004E00FBFF10003A
:1038D8004F00FCFF10005000FDFF10005100FEFFDC
:1038E80010005200FFFF10005300000010005400A9
:1038F80001001000550002001000560003001000DF
:103908005700040010005800050010005900060078
:1039180010005A00070010005B00080010005C004F
:10392800090010005D000A0010005E000B00100086
:103938005F000C00100060000D00100061000E0018
:10394800100062000F0011000100AEFF110002001C
:10395800AFFF11000300B0FF11000400B1FF110018
:103968000500B2FF11000600B3FF11000700B4FF05
:1039780011000800B5FF11000900B6FF11000A0088
:10398800B7FF11000B00B8FF11000C00B9FF1100C0
:103998000D00BAFF11000E00BBFF11000F00BCFFA5
:1039A80011001000BDFF11001100BEFF1100120030
:1039B800BFFF11001300C0FF11001400C1FF110068
:1039C8001500C2FF11001600C3FF11001700C4FF45
:1039D80011001800C5FF11001900C6FF11001A00D8
:1039E800C7FF11001B00C8FF11001C00C9FF110010
:1039F8001D00CAFF11001E00CBFF11001F00CCFFE5
:103A080011002000CDFF11002100CEFF110022007F
:103A1800CFFF11002300D0FF11002400D1FF1100B7
:103A28002500D2FF11002600D3FF11002700D4FF84
:103A380011002800D5FF11002900D6FF11002A0027
:103A4800D7FF11002B00D8FF11002C00D9FF11005F
:103A58002D00DAFF11002E00DBFF11002F00DCFF24
:103A680011003000DDFF11003100DEFF11003200CF
:103A7800E0FF11003300E1FF11003400E2FF110004
:103A88003500E3FF11003600E4FF11003700E5FFC1
:103A980011003800E6FF11003900E7FF11003A0075
:103AA800E8FF11003B00E9FF11003C00EAFF1100AC
:103AB8003D00EBFF11003E00ECFF11003F00EDFF61
:103AC80011004000EEFF11004100EFFF110042001D
:103AD800F0FF11004300F1FF11004400F2FF110054
:103AE8004500F3FF11004600F4FF11004700F5FF01
:103AF80011004800F6FF11004900F7FF11004A00C5
:103B0800F8FF11004B00F9FF11004C00FAFF1100FB
:103B18004D00FBFF11004E00FCFF11004F00FDFFA0
:103B280011005000FEFF11005100FFFF110052006C
:103B380000001100530001001100540002001100A0
:103B4800550003001100560004001100570005003D
:103B580011005800060011005900070011005A0012
:103B6800080011005B00090011005C000A00110048
:103B78005D000B0011005E000C0011005F000D00DD
:103B8800110060000E00110061000F0011006200BA
:103B9800100012000100AFFF12000200B0FF120077
:103BA8000300B1FF12000400B2FF12000500B3FFCA
:103BB80012000600B4FF12000700B5FF120008004B
:103BC800B6FF12000900B7FF12000A00B8FF120082
:103BD8000B00B9FF12000C00BAFF12000D00BBFF6A
:103BE80012000E00BCFF12000F00BDFF12001000F3
:103BF800BEFF12001100BFFF12001200C0FF12002A
:103C08001300C1FF12001400C2FF12001500C3FF09
:103C180012001600C4FF12001700C5FF120018009A
:103C2800C6FF12001900C7FF12001A00C8FF1200D1
:103C38001B00C9FF12001C00CAFF12001D00CBFFA9
:103C480012001E00CCFF12001F00CDFF1200200042
:103C5800CEFF12002100CFFF12002200D0FF120079
:103C68002300D1FF12002400D2FF12002500D3FF49
:103C780012002600D4FF12002700D5FF12002800EA
:103C8800D6FF12002900D7FF12002A00D8FF120021
:103C98002B00D9FF12002C00DAFF12002D00DBFFE9
:103CA80012002E00DCFF12002F00DDFF1200300092
:103CB800DEFF12003100DFFF12003200E1FF1200C8
:103CC8003300E2FF12003400E3FF12003500E4FF86
:103CD80012003600E5FF12003700E6FF1200380038
:103CE800E7FF12003900E8FF12003A00E9FF12006E
:103CF8003B00EAFF12003C00EBFF12003D00ECFF26
:103D080012003E00EDFF12003F00EEFF12004000DF
:103D1800EFFF12004100F0FF12004200F1FF120015
:103D28004300F2FF12004400F3FF12004500F4FFC5
:103D380012004600F5FF12004700F6FF1200480087
:103D4800F7FF12004900F8FF12004A00F9FF1200BD
:103D58004B00FAFF12004C00FBFF12004D00FCFF65
:103D680012004E00FDFF12004F00FEFF120050002F
:103D7800FFFF120051000000120052000100120063
:103D88005300020012005400030012005500040002
:103D980012005600050012005700060012005800D5
:103DA800070012005900080012005A00090012000A
:103DB8005B000A0012005C000B0012005D000C00A2
:103DC80012005E000D0012005F000E00120060007D
:103DD8000F001200610010001200620011001300B1
:103DE8000100B0FF13000200B1FF13000300B2FF8F
:103DF80013000400B3FF13000500B4FF130006000E
:103E0800B5FF13000700B6FF13000800B7FF130043
:103E18000900B8FF13000A00B9FF13000B00BAFF2E
:103E280013000C00BBFF13000D00BCFF13000E00B5
:103E3800BDFF13000F00BEFF13001000BFFF1300EB
:103E48001100C0FF13001200C1FF13001300C2FFCE
:103E580013001400C3FF13001500C4FF130016005D
:103E6800C5FF13001700C6FF13001800C7FF130093
:103E78001900C8FF13001A00C9FF13001B00CAFF6E
:103E880013001C00CBFF13001D00CCFF13001E0005
:103E9800CDFF13001F00CEFF13002000CFFF13003B
:103EA8002100D0FF13002200D1FF13002300D2FF0E
:103EB80013002400D3FF13002500D4FF13002600AD
:103EC800D5FF13002700D6FF13002800D7FF1300E3
:103ED8002900D8FF13002A00D9FF13002B00DAFFAE
:103EE80013002C00DBFF13002D00DCFF13002E0055
:103EF800DDFF13002F00DEFF13003000DFFF13008B
:103F08003100E0FF13003200E2FF13003300E3FF4B
:103F180013003400E4FF13003500E5FF13003600FA
:103F2800E6FF13003700E7FF13003800E8FF13002F
:103F38003900E9FF13003A00EAFF13003B00EBFFEA
:103F480013003C00ECFF13003D00EDFF13003E00A2
:103F5800EEFF13003F00EFFF13004000F0FF1300D7
:103F68004100F1FF13004200F2FF13004300F3FF8A
:103F780013004400F4FF13004500F5FF130046004A
:103F8800F6FF13004700F7FF13004800F8FF13007F
:103F98004900F9FF13004A00FAFF13004B00FBFF2A
:103FA80013004C00FCFF13004D00FDFF13004E00F2
:103FB800FEFF13004F00FFFF130050000000130026
:103FC80051000100130052000200130053000300C7
:103FD8001300540004001300550005001300560098
:103FE80006001300570007001300580008001300CC
:103FF8005900090013005A000A0013005B000B0067
:1040080013005C000C0013005D000D0013005E003F
:104018000E0013005F000F00130060001000130073
:104028006100110013006200120014000100B1FFCA
:1040380014000200B2FF14000300B3FF14000400D0
:10404800B4FF14000500B5FF14000600B6FF140005
:104058000700B7FF14000800B8FF14000900B9FFF3
:1040680014000A00BAFF14000B00BBFF14000C0078
:10407800BCFF14000D00BDFF14000E00BEFF1400AD
:104088000F00BFFF14001000C0FF14001100C1FF93
:1040980014001200C2FF14001300C3FF1400140020
:1040A800C4FF14001500C5FF14001600C6FF140055
:1040B8001700C7FF14001800C8FF14001900C9FF33
:1040C80014001A00CAFF14001B00CBFF14001C00C8
:1040D800CCFF14001D00CDFF14001E00CEFF1400FD
:1040E8001F00CFFF14002000D0FF14002100D1FFD3
:1040F80014002200D2FF14002300D3FF1400240070
:10410800D4FF14002500D5FF14002600D6FF1400A4
:104118002700D7FF14002800D8FF14002900D9FF72
:1041280014002A00DAFF14002B00DBFF14002C0017
:10413800DCFF14002D00DDFF14002E00DEFF14004C
:104148002F00DFFF14003000E0FF14003100E1FF12
:1041580014003200E3FF14003300E4FF14003400BD
:10416800E5FF14003500E6FF14003600E7FF1400F1
:104178003700E8FF14003800E9FF14003900EAFFAF
:1041880014003A00EBFF14003B00ECFF14003C0065
:10419800EDFF14003D00EEFF14003E00EFFF140099
:1041A8003F00F0FF14004000F1FF14004100F2FF4F
:1041B80014004200F3FF14004300F4FF140044000D
:1041C800F5FF14004500F6FF14004600F7FF140041
:1041D8004700F8FF14004800F9FF14004900FAFFEF
:1041E80014004A00FBFF14004B00FCFF14004C00B5
:1041F800FDFF14004D00FEFF14004E00FFFF1400E9
:104208004F0000001400500001001400510002008B
:10421800140052000300140053000400140054005A
:10422800050014005500060014005600070014008D
:1042380057000800140058000900140059000A002B
:1042480014005A000B0014005B000C0014005C0002
:104258000D0014005D000E0014005E000F00140035
:104268005F001000140060001100140061001200CB
:1042780014006200130015000100B2FF15000200CF
:10428800B3FF15000300B4FF15000400B5FF1500C7
:104298000500B6FF15000600B7FF15000700B8FFB8
:1042A80015000800B9FF15000900BAFF15000A003B
:1042B800BBFF15000B00BCFF15000C00BDFF15006F
:1042C8000D00BEFF15000E00BFFF15000F00C0FF58
:1042D80015001000C1FF15001100C2FF15001200E3
:1042E800C3FF15001300C4FF15001400C5FF150017
:1042F8001500C6FF15001600C7FF15001700C8FFF8
:1043080015001800C9FF15001900CAFF15001A008A
:10431800CBFF15001B00CCFF15001C00CDFF1500BE
:104328001D00CEFF15001E00CFFF15001F00D0FF97
:1043380015002000D1FF15002100D2FF1500220032
:10434800D3FF15002300D4FF15002400D5FF150066
:104358002500D6FF15002600D7FF15002700D8FF37
:1043680015002800D9FF15002900DAFF15002A00DA
:10437800DBFF15002B00DCFF15002C00DDFF15000E
:104388002D00DEFF15002E00DFFF15002F00E0FFD7
:1043980015003000E1FF15003100E2FF1500320082
:1043A800E4FF15003300E5FF15003400E6FF1500B3
:1043B8003500E7FF15003600E8FF15003700E9FF74
:1043C80015003800EAFF15003900EBFF15003A0028
:1043D800ECFF15003B00EDFF15003C00EEFF15005B
:1043E8003D00EFFF15003E00F0FF15003F00F1FF14
:1043F80015004000F2FF15004100F3FF15004200D0
:10440800F4FF15004300F5FF15004400F6FF150002
:104418004500F7FF15004600F8FF15004700F9FFB3
:1044280015004800FAFF15004900FBFF15004A0077
:10443800FCFF15004B00FDFF15004C00FEFF1500AA
:104448004D00FFFF15004E00000015004F00010051
:10445800150050000200150051000300150052001D
:10446800040015005300050015005400060015004F
:1044780055000700150056000800150057000900F0
:10448800150058000A00150059000B0015005A00C5
:104498000C0015005B000D0015005C000E001500F7
:1044A8005D000F0015005E00100015005F00110090
:1044B800150060001200150061001300150062006D
:1044C800140016000100B3FF16000200B4FF160026
:1044D8000300B5FF16000400B6FF16000500B7FF7D
:1044E80016000600B8FF16000700B9FF16000800FE
:1044F800BAFF16000900BBFF16000A00BCFF160031
:104508000B00BDFF16000C00BEFF16000D00BFFF1C
:1045180016000E00C0FF16000F00C1FF16001000A5
:10452800C2FF16001100C3FF16001200C4FF1600D8
:104538001300C5FF16001400C6FF16001500C7FFBC
:1045480016001600C8FF16001700C9FF160018004D
:10455800CAFF16001900CBFF16001A00CCFF160080
:104568001B00CDFF16001C00CEFF16001D00CFFF5C
:1045780016001E00D0FF16001F00D1FF16002000F5
:10458800D2FF16002100D3FF16002200D4FF160028
:104598002300D5FF16002400D6FF16002500D7FFFC
:1045A80016002600D8FF16002700D9FF160028009D
:1045B800DAFF16002900DBFF16002A00DCFF1600D0
:1045C8002B00DDFF16002C00DEFF16002D00DFFF9C
:1045D80016002E00E0FF16002F00E1FF1600300045
:1045E800E2FF16003100E3FF16003200E5FF160077
:1045F8003300E6FF16003400E7FF16003500E8FF39
:1046080016003600E9FF16003700EAFF16003800EA
:10461800EBFF16003900ECFF16003A00EDFF16001C
:104628003B00EEFF16003C00EFFF16003D00F0FFD8
:1046380016003E00F1FF16003F00F2FF1600400092
:10464800F3FF16004100F4FF16004200F5FF1600C4
:104658004300F6FF16004400F7FF16004500F8FF78
:1046680016004600F9FF16004700FAFF160048003A
:10467800FBFF16004900FCFF16004A00FDFF16006C
:104688004B00FEFF16004C00FFFF16004D00000017
:1046980016004E00010016004F00020016005000E0
:1046A8000300160051000400160052000500160011
:1046B80053000600160054000700160055000800B5
:1046C800160056000900160057000A001600580088
:1046D8000B00160059000C0016005A000D001600B9
:1046E8005B000E0016005C000F0016005D00100055
:1046F80016005E00110016005F0012001600600030
:10470800130016006100140016006200150017005F
:104718000100B4FF17000200B5FF17000300B6FF41
:1047280017000400B7FF17000500B8FF17000600C0
:10473800B9FF17000700BAFF17000800BBFF1700F2
:104748000900BCFF17000A00BDFF17000B00BEFFE1
:1047580017000C00BFFF17000D00C0FF17000E0068
:10476800C1FF17000F00C2FF17001000C3FF17009A
:104778001100C4FF17001200C5FF17001300C6FF81
:1047880017001400C7FF17001500C8FF1700160010
:10479800C9FF17001700CAFF17001800CBFF170042
:1047A8001900CCFF17001A00CDFF17001B00CEFF21
:1047B80017001C00CFFF17001D00D0FF17001E00B8
:1047C800D1FF17001F00D2FF17002000D3FF1700EA
:1047D8002100D4FF17002200D5FF17002300D6FFC1
:1047E80017002400D7FF17002500D8FF1700260060
:1047F800D9FF17002700DAFF17002800DBFF170092
:104808002900DCFF17002A00DDFF17002B00DEFF60
:1048180017002C00DFFF17002D00E0FF17002E0007
:10482800E1FF17002F00E2FF17003000E3FF170039
:104838003100E4FF17003200E6FF17003300E7FFFE
:1048480017003400E8FF17003500E9FF17003600AD
:10485800EAFF17003700EBFF17003800ECFF1700DE
:104868003900EDFF17003A00EEFF17003B00EFFF9D
:1048780017003C00F0FF17003D00F1FF17003E0055
:10488800F2FF17003F00F3FF17004000F4FF170086
:104898004100F5FF17004200F6FF17004300F7FF3D
:1048A80017004400F8FF17004500F9FF17004600FD
:1048B800FAFF17004700FBFF17004800FCFF17002E
:1048C8004900FDFF17004A00FEFF17004B00FFFFDD
:1048D80017004C00000017004D00010017004E00A3
:1048E800020017004F0003001700500004001700D3
:1048F800510005001700520006001700530007007A
:10490800170054000800170055000900170056004A
:104918000A00170057000B00170058000C0017007A
:1049280059000D0017005A000E0017005B000F0019
:1049380017005C00100017005D00110017005E00F2
:10494800120017005F001300170060001400170022
:104958006100150017006200160018000100B5FF7D
:1049680018000200B6FF18000300B7FF1800040083
:10497800B8FF18000500B9FF18000600BAFF1800B4
:104988000700BBFF18000800BCFF18000900BDFFA6
:1049980018000A00BEFF18000B00BFFF18000C002B
:1049A800C0FF18000D00C1FF18000E00C2FF18005C
:1049B8000F00C3FF18001000C4FF18001100C5FF46
:1049C80018001200C6FF18001300C7FF18001400D3
:1049D800C8FF18001500C9FF18001600CAFF180004
:1049E8001700CBFF18001800CCFF18001900CDFFE6
:1049F80018001A00CEFF18001B00CFFF18001C007B
:104A0800D0FF18001D00D1FF18001E00D2FF1800AB
:104A18001F00D3FF18002000D4FF18002100D5FF85
:104A280018002200D6FF18002300D7FF1800240022
:104A3800D8FF18002500D9FF18002600DAFF180053
:104A48002700DBFF18002800DCFF18002900DDFF25
:104A580018002A00DEFF18002B00DFFF18002C00CA
:104A6800E0FF18002D00E1FF18002E00E2FF1800FB
:104A78002F00E3FF18003000E4FF18003100E5FFC5
:104A880018003200E7FF18003300E8FF1800340070
:104A9800E9FF18003500EAFF18003600EBFF1800A0
:104AA8003700ECFF18003800EDFF18003900EEFF62
:104AB80018003A00EFFF18003B00F0FF18003C0018
:104AC800F1FF18003D00F2FF18003E00F3FF180048
:104AD8003F00F4FF18004000F5FF18004100F6FF02
:104AE80018004200F7FF18004300F8FF18004400C0
:104AF800F9FF18004500FAFF18004600FBFF1800F0
:104B08004700FCFF18004800FDFF18004900FEFFA1
:104B180018004A00FFFF18004B00000018004C0066
:104B2800010018004D00020018004E000300180094
:104B38004F0004001800500005001800510006003E
:104B4800180052000700180053000800180054000D
:104B58000900180055000A00180056000B0018003C
:104B680057000C00180058000D00180059000E00DE
:104B780018005A000F0018005B00100018005C00B5
:104B8800110018005D00120018005E0013001800E4
:104B98005F0014001800600015001800610016007E
:104BA80018006200170019000100B6FF1900020082
:104BB800B7FF19000300B8FF19000400B9FF190076
:104BC8000500BAFF19000600BBFF19000700BCFF6B
:104BD80019000800BDFF19000900BEFF19000A00EE
:104BE800BFFF19000B00C0FF19000C00C1FF19001E
:104BF8000D00C2FF19000E00C3FF19000F00C4FF0B
:104C080019001000C5FF19001100C6FF1900120095
:104C1800C7FF19001300C8FF19001400C9FF1900C5
:104C28001500CAFF19001600CBFF19001700CCFFAA
:104C380019001800CDFF19001900CEFF19001A003D
:104C4800CFFF19001B00D0FF19001C00D1FF19006D
:104C58001D00D2FF19001E00D3FF19001F00D4FF4A
:104C680019002000D5FF19002100D6FF19002200E5
:104C7800D7FF19002300D8FF19002400D9FF190015
:104C88002500DAFF19002600DBFF19002700DCFFEA
:104C980019002800DDFF19002900DEFF19002A008D
:104CA800DFFF19002B00E0FF19002C00E1FF1900BD
:104CB8002D00E2FF19002E00E3FF19002F00E4FF8A
:104CC80019003000E5FF19003100E6FF1900320035
:104CD800E8FF19003300E9FF19003400EAFF190062
:104CE8003500EBFF19003600ECFF19003700EDFF27
:104CF80019003800EEFF19003900EFFF19003A00DB
:104D0800F0FF19003B00F1FF19003C00F2FF190009
:104D18003D00F3FF19003E00F4FF19003F00F5FFC6
:104D280019004000F6FF19004100F7FF1900420082
:104D3800F8FF19004300F9FF19004400FAFF1900B1
:104D48004500FBFF19004600FCFF19004700FDFF66
:104D580019004800FEFF19004900FFFF19004A002A
:104D6800000019004B00010019004C000200190056
:104D78004D00030019004E00040019004F00050003
:104D880019005000060019005100070019005200D0
:104D98000800190053000900190054000A001900FE
:104DA80055000B00190056000C00190057000D00A3
:104DB800190058000E00190059000F0019005A0078
:104DC800100019005B00110019005C0012001900A6
:104DD8005D00130019005E00140019005F00150043
:104DE8001900600016001900610017001900620020
:104DF80018001A000100B7FF1A000200B8FF1A00D5
:104E08000300B9FF1A000400BAFF1A000500BBFF2F
:104E18001A000600BCFF1A000700BDFF1A000800B0
:104E2800BEFF1A000900BFFF1A000A00C0FF1A00DF
:104E38000B00C1FF1A000C00C2FF1A000D00C3FFCF
:104E48001A000E00C4FF1A000F00C5FF1A00100058
:104E5800C6FF1A001100C7FF1A001200C8FF1A0087
:104E68001300C9FF1A001400CAFF1A001500CBFF6F
:104E78001A001600CCFF1A001700CDFF1A00180000
:104E8800CEFF1A001900CFFF1A001A00D0FF1A002F
:104E98001B00D1FF1A001C00D2FF1A001D00D3FF0F
:104EA8001A001E00D4FF1A001F00D5FF1A002000A8
:104EB800D6FF1A002100D7FF1A002200D8FF1A00D7
:104EC8002300D9FF1A002400DAFF1A002500DBFFAF
:104ED8001A002600DCFF1A002700DDFF1A00280050
:104EE800DEFF1A002900DFFF1A002A00E0FF1A007F
:104EF8002B00E1FF1A002C00E2FF1A002D00E3FF4F
:104F08001A002E00E4FF1A002F00E5FF1A003000F7
:104F1800E6FF1A003100E7FF1A003200E9FF1A0025
:104F28003300EAFF1A003400EBFF1A003500ECFFEB
:104F38001A003600EDFF1A003700EEFF1A0038009D
:104F4800EFFF1A003900F0FF1A003A00F1FF1A00CB
:104F58003B00F2FF1A003C00F3FF1A003D00F4FF8B
:104F68001A003E00F5FF1A003F00F6FF1A00400045
:104F7800F7FF1A004100F8FF1A004200F9FF1A0073
:104F88004300FAFF1A004400FBFF1A004500FCFF2B
:104F98001A004600FDFF1A004700FEFF1A004800ED
:104FA800FFFF1A00490000001A004A0001001A0019
:104FB8004B0002001A004C0003001A004D000400C8
:104FC8001A004E0005001A004F0006001A00500093
:104FD80007001A00510008001A00520009001A00C0
:104FE80053000A001A0054000B001A0055000C0068
:104FF8001A0056000D001A0057000E001A0058003B
:105008000F001A00590010001A005A0011001A0067
:105018005B0012001A005C0013001A005D00140007
:105028001A005E0015001A005F0016001A006000E2
:1050380017001A00610018001A00620019001B000E
:105048000100B8FF1B000200B9FF1B000300BAFFF4
:105058001B000400BBFF1B000500BCFF1B00060073
:10506800BDFF1B000700BEFF1B000800BFFF1B00A1
:105078000900C0FF1B000A00C1FF1B000B00C2FF94
:105088001B000C00C3FF1B000D00C4FF1B000E001B
:10509800C5FF1B000F00C6FF1B001000C7FF1B0049
:1050A8001100C8FF1B001200C9FF1B001300CAFF34
:1050B8001B001400CBFF1B001500CCFF1B001600C3
:1050C800CDFF1B001700CEFF1B001800CFFF1B00F1
:1050D8001900D0FF1B001A00D1FF1B001B00D2FFD4
:1050E8001B001C00D3FF1B001D00D4FF1B001E006B
:1050F800D5FF1B001F00D6FF1B002000D7FF1B0099
:105108002100D8FF1B002200D9FF1B002300DAFF73
:105118001B002400DBFF1B002500DCFF1B00260012
:10512800DDFF1B002700DEFF1B002800DFFF1B0040
:105138002900E0FF1B002A00E1FF1B002B00E2FF13
:105148001B002C00E3FF1B002D00E4FF1B002E00BA
:10515800E5FF1B002F00E6FF1B003000E7FF1B00E8
:105168003100E8FF1B003200EAFF1B003300EBFFB1
:105178001B003400ECFF1B003500EDFF1B00360060
:10518800EEFF1B003700EFFF1B003800F0FF1B008D
:105198003900F1FF1B003A00F2FF1B003B00F3FF50
:1051A8001B003C00F4FF1B003D00F5FF1B003E0008
:1051B800F6FF1B003F00F7FF1B004000F8FF1B0035
:1051C8004100F9FF1B004200FAFF1B004300FBFFF0
:1051D8001B004400FCFF1B004500FDFF1B004600B0
:1051E800FEFF1B004700FFFF1B00480000001B00DC
:1051F800490001001B004A0002001B004B0003008D
:105208001B004C0004001B004D0005001B004E0055
:1052180006001B004F0007001B00500008001B0081
:10522800510009001B0052000A001B0053000B002C
:105238001B0054000C001B0055000D001B005600FD
:105248000E001B0057000F001B00580010001B0029
:10525800590011001B005A0012001B005B001300CC
:105268001B005C0014001B005D0015001B005E00A5
:1052780016001B005F0017001B00600018001B00D1
:10528800610019001B0062001A001C000100B9FF30
:105298001C000200BAFF1C000300BBFF1C00040036
:1052A800BCFF1C000500BDFF1C000600BEFF1C0063
:1052B8000700BFFF1C000800C0FF1C000900C1FF59
:1052C8001C000A00C2FF1C000B00C3FF1C000C00DE
:1052D800C4FF1C000D00C5FF1C000E00C6FF1C000B
:1052E8000F00C7FF1C001000C8FF1C001100C9FFF9
:1052F8001C001200CAFF1C001300CBFF1C00140086
:10530800CCFF1C001500CDFF1C001600CEFF1C00B2
:105318001700CFFF1C001800D0FF1C001900D1FF98
:105328001C001A00D2FF1C001B00D3FF1C001C002D
:10533800D4FF1C001D00D5FF1C001E00D6FF1C005A
:105348001F00D7FF1C002000D8FF1C002100D9FF38
:105358001C002200DAFF1C002300DBFF1C002400D5
:10536800DCFF1C002500DDFF1C002600DEFF1C0002
:105378002700DFFF1C002800E0FF1C002900E1FFD8
:105388001C002A00E2FF1C002B00E3FF1C002C007D
:10539800E4FF1C002D00E5FF1C002E00E6FF1C00AA
:1053A8002F00E7FF1C003000E8FF1C003100E9FF78
:1053B8001C003200EBFF1C003300ECFF1C00340023
:1053C800EDFF1C003500EEFF1C003600EFFF1C004F
:1053D8003700F0FF1C003800F1FF1C003900F2FF15
:1053E8001C003A00F3FF1C003B00F4FF1C003C00CB
:1053F800F5FF1C003D00F6FF1C003E00F7FF1C00F7
:105408003F00F8FF1C004000F9FF1C004100FAFFB4
:105418001C004200FBFF1C004300FCFF1C00440072
:10542800FDFF1C004500FEFF1C004600FFFF1C009E
:10543800470000001C00480001001C004900020051
:105448001C004A0003001C004B0004001C004C0018
:1054580005001C004D0006001C004E0007001C0043
:105468004F0008001C00500009001C0051000A00F1
:105478001C0052000B001C0053000C001C005400C0
:105488000D001C0055000E001C0056000F001C00EB
:10549800570010001C00580011001C005900120091
:1054A8001C005A0013001C005B0014001C005C0068
:1054B80015001C005D0016001C005E0017001C0093
:1054C8005F0018001C00600019001C0061001A0031
:1054D8001C0062001B001D000100BAFF1D00020035
:1054E800BBFF1D000300BCFF1D000400BDFF1D0025
:1054F8000500BEFF1D000600BFFF1D000700C0FF1E
:105508001D000800C1FF1D000900C2FF1D000A00A0
:10551800C3FF1D000B00C4FF1D000C00C5FF1D00CC
:105528000D00C6FF1D000E00C7FF1D000F00C8FFBD
:105538001D001000C9FF1D001100CAFF1D00120048
:10554800CBFF1D001300CCFF1D001400CDFF1D0074
:105558001500CEFF1D001600CFFF1D001700D0FF5D
:105568001D001800D1FF1D001900D2FF1D001A00F0
:10557800D3FF1D001B00D4FF1D001C00D5FF1D001C
:105588001D00D6FF1D001E00D7FF1D001F00D8FFFD
:105598001D002000D9FF1D002100DAFF1D00220098
:1055A800DBFF1D002300DCFF1D002400DDFF1D00C4
:1055B8002500DEFF1D002600DFFF1D002700E0FF9D
:1055C8001D002800E1FF1D002900E2FF1D002A0040
:1055D800E3FF1D002B00E4FF1D002C00E5FF1D006C
:1055E8002D00E6FF1D002E00E7FF1D002F00E8FF3D
:1055F8001D003000E9FF1D003100EAFF1D003200E8
:10560800ECFF1D003300EDFF1D003400EEFF1D0010
:105618003500EFFF1D003600F0FF1D003700F1FFD9
:105628001D003800F2FF1D003900F3FF1D003A008D
:10563800F4FF1D003B00F5FF1D003C00F6FF1D00B8
:105648003D00F7FF1D003E00F8FF1D003F00F9FF79
:105658001D004000FAFF1D004100FBFF1D00420035
:10566800FCFF1D004300FDFF1D004400FEFF1D0060
:105678004500FFFF1D00460000001D004700010017
:105688001D00480002001D00490003001D004A00DB
:1056980004001D004B0005001D004C0006001D0005
:1056A8004D0007001D004E0008001D004F000900B6
:1056B8001D0050000A001D0051000B001D00520083
:1056C8000C001D0053000D001D0054000E001D00AD
:1056D80055000F001D00560010001D005700110056
:1056E8001D00580012001D00590013001D005A002B
:1056F80014001D005B0015001D005C0016001D0055
:105708005D0017001D005E0018001D005F001900F5
:105718001D0060001A001D0061001B001D006200D2
:105728001C001E000100BBFF1E000200BCFF1E0083
:105738000300BDFF1E000400BEFF1E000500BFFFE2
:105748001E000600C0FF1E000700C1FF1E00080063
:10575800C2FF1E000900C3FF1E000A00C4FF1E008E
:105768000B00C5FF1E000C00C6FF1E000D00C7FF82
:105778001E000E00C8FF1E000F00C9FF1E0010000B
:10578800CAFF1E001100CBFF1E001200CCFF1E0036
:105798001300CDFF1E001400CEFF1E001500CFFF22
:1057A8001E001600D0FF1E001700D1FF1E001800B3
:1057B800D2FF1E001900D3FF1E001A00D4FF1E00DE
:1057C8001B00D5FF1E001C00D6FF1E001D00D7FFC2
:1057D8001E001E00D8FF1E001F00D9FF1E0020005B
:1057E800DAFF1E002100DBFF1E002200DCFF1E0086
:1057F8002300DDFF1E002400DEFF1E002500DFFF62
:105808001E002600E0FF1E002700E1FF1E00280002
:10581800E2FF1E002900E3FF1E002A00E4FF1E002D
:105828002B00E5FF1E002C00E6FF1E002D00E7FF01
:105838001E002E00E8FF1E002F00E9FF1E003000AA
:10584800EAFF1E003100EBFF1E003200EDFF1E00D4
:105858003300EEFF1E003400EFFF1E003500F0FF9E
:105868001E003600F1FF1E003700F2FF1E00380050
:10587800F3FF1E003900F4FF1E003A00F5FF1E007A
:105888003B00F6FF1E003C00F7FF1E003D00F8FF3E
:105898001E003E00F9FF1E003F00FAFF1E004000F8
:1058A800FBFF1E004100FCFF1E004200FDFF1E0022
:1058B8004300FEFF1E004400FFFF1E0045000000DD
:1058C8001E00460001001E00470002001E0048009E
:1058D80003001E00490004001E004A0005001E00C7
:1058E8004B0006001E004C0007001E004D0008007B
:1058F8001E004E0009001E004F000A001E00500046
:105908000B001E0051000C001E0052000D001E006E
:1059180053000E001E0054000F001E00550010001A
:105928001E00560011001E00570012001E005800ED
:1059380013001E00590014001E005A0015001E0016
:105948005B0016001E005C0017001E005D001800BA
:105958001E005E0019001E005F001A001E00600095
:105968001B001E0061001C001E0062001D001F00BD
:105978000100BCFF1F000200BDFF1F000300BEFFA7
:105988001F000400BFFF1F000500C0FF1F00060026
:10599800C1FF1F000700C2FF1F000800C3FF1F0050
:1059A8000900C4FF1F000A00C5FF1F000B00C6FF47
:1059B8001F000C00C7FF1F000D00C8FF1F000E00CE
:1059C800C9FF1F000F00CAFF1F001000CBFF1F00F8
:1059D8001100CCFF1F001200CDFF1F001300CEFFE7
:1059E8001F001400CFFF1F001500D0FF1F00160076
:1059F800D1FF1F001700D2FF1F001800D3FF1F00A0
:105A08001900D4FF1F001A00D5FF1F001B00D6FF86
:105A18001F001C00D7FF1F001D00D8FF1F001E001D
:105A2800D9FF1F001F00DAFF1F002000DBFF1F0047
:105A38002100DCFF1F002200DDFF1F002300DEFF26
:105A48001F002400DFFF1F002500E0FF1F002600C5
:105A5800E1FF1F002700E2FF1F002800E3FF1F00EF
:105A68002900E4FF1F002A00E5FF1F002B00E6FFC6
:105A78001F002C00E7FF1F002D00E8FF1F002E006D
:105A8800E9FF1F002F00EAFF1F003000EBFF1F0097
:105A98003100ECFF1F003200EEFF1F003300EFFF64
:105AA8001F003400F0FF1F003500F1FF1F00360013
:105AB800F2FF1F003700F3FF1F003800F4FF1F003C
:105AC8003900F5FF1F003A00F6FF1F003B00F7FF03
